:100000000C945A000C9475000C9475000C947500B7
:100010000C9475000C9475000C9475000C9475008C
:100020000C9475000C9475000C9475000C9475007C
:100030000C9475000C9475000C9475000C9475006C
:100040000C94B2020C9475000C9475000C9475001D
:100050000C9475000C9475000C9475000C9475004C
:100060000C9475000C947500000024272A000025CC
:10007000282B000023262904040404040404040299
:100080000202020202030303030303010204081035
:100090002040800102040810200102040810200002
:1000A0000000070002010000030406000000000039
:1000B0000000000011241FBECFEFD4E0DEBFCDBF93
:1000C00011E0A0E0B1E0E2EDF9E002C005900D9290
:1000D000A430B107D9F713E0A4E0B1E001C01D924C
:1000E000AE36B107E1F70C94A7020C940000109211
:1000F00065031092640320E030E061E040E050E0EE
:10010000FA01EC5FFE4F80E090E0619301968F3042
:100110009105D9F72F5F3F4F405F5F4F2230310588
:1001200079F730936503209364039093670380937A
:10013000660308950F931F93CF93DF931092650387
:1001400010926403809168039091690320E030E08D
:100150008F7090700F9711F421E030E000E010E014
:10016000C4E0D1E060E070E0D901AC5FBE4FFB01BC
:10017000EC5FFE4F40E050E08D9181934F5F5F4F09
:100180004E305105C9F788818E870F5F1F4F605F22
:100190007F4F205F3F4F60960632110529F786E2B8
:1001A00090E09093650380936403509367034093BA
:1001B0006603DF91CF911F910F910895EF92FF9207
:1001C0000F931F93CF93DF938091680390916903FE
:1001D00001969093690380936803EE24FF2415B879
:1001E00084E090E00E94110311E015B985E090E0F1
:1001F0000E941103E70184E0D595C7958A95E1F740
:10020000E0FC03C083E085B901C015B983E090E04C
:100210000E94110315B983E090E00E94110382E06F
:1002200085B983E090E00E9411038E010C5F1E4FA0
:10023000F801808185B981E090E00E941103F80106
:10024000808985B981E090E00E941103F80180A1C6
:1002500085B981E090E00E941103F80180A985B979
:1002600081E090E00E941103005C1F4FF801808143
:1002700085B981E090E00E941103005F1F4FF801F3
:10028000808185B981E090E00E941103005F1F4FDB
:10029000F801808185B981E090E00E941103005F40
:1002A0001F4FF801808185B981E090E00E94110321
:1002B000005F1F4FF801808185B981E090E00E94C6
:1002C0001103005F1F4FF801808185B981E090E044
:1002D0000E941103005F1F4FF801808185B981E002
:1002E00090E00E941103005F1F4FF801808185B9E3
:1002F00081E090E00E941103005F1F4FF8018081B0
:1003000085B981E090E00E941103005F1F4FF80162
:10031000808185B981E090E00E941103005F1F4F4A
:10032000F801808185B981E090E00E941103005FAF
:100330001F4FF801808185B981E090E00E94110390
:10034000005F1F4FF801808185B981E090E00E9435
:100350001103005F1F4FF801808185B981E090E0B3
:100360000E941103005F1F4FF801808185B981E071
:1003700090E00E941103005F1F4FF801808185B952
:1003800081E090E00E941103005F1F4FF80180811F
:1003900085B981E090E00E941103005F1F4FF801D2
:1003A000808185B981E090E00E941103005F1F4FBA
:1003B000F801808185B981E090E00E941103005F1F
:1003C0001F4FF801808185B981E090E00E94110300
:1003D000005F1F4FF801808185B981E090E00E94A5
:1003E0001103005F1F4FF801808185B981E090E023
:1003F0000E941103005F1F4FF801808185B981E0E1
:1004000090E00E941103005F1F4FF801808185B9C1
:1004100081E090E00E941103005F1F4FF80180818E
:1004200085B981E090E00E941103005F1F4FF80141
:10043000808185B981E090E00E941103005F1F4F29
:10044000F801808185B981E090E00E941103005F8E
:100450001F4FF801808185B981E090E00E9411036F
:1004600011E015B986E090E00E94110315B981E012
:1004700090E00E9411030894E11CF11CF2EFEF16CA
:10048000F10409F0ACCE15B80E949A0081EF94E017
:100490000E941103DF91CF911F910F91FF90EF9078
:1004A00008950F931F93CF93DF93109265031092DB
:1004B00064031092670310926603C0E0D0E00091DD
:1004C0006403109165030E94710424E0000F111F62
:1004D0002A95E1F70C5F1E4F0C0F1D1F63E070E0C3
:1004E0000E9481048F5FF8018083C0916603D091E0
:1004F00067032196D0936703C0936603CF30D1057D
:10050000F4F28091640390916503019690936503E2
:100510008093640386976CF2DF91CF911F910F91C6
:100520000895F8940E9477000E94510261E088E0EB
:100530000E94680361E089E00E94680361E088E04E
:100540000E94D20361E089E00E94D2030895CFEFB8
:10055000D4E0DEBFCDBF0E941E030E9491020E9424
:10056000DE00FDCF1F920F920FB60F9211248F93D2
:100570009F93AF93BF9380916A0390916B03A09177
:100580006C03B0916D030196A11DB11D80936A03A8
:1005900090936B03A0936C03B0936D03BF91AF91E5
:1005A0009F918F910F900FBE0F901F9018956091A3
:1005B0006A0370916B0380916C0390916D0327E047
:1005C000660F771F881F991F2A95D1F72DE730E016
:1005D00040E050E00E949404CA01B9010895AF922E
:1005E000BF92CF92DF92EF92FF920F931F935B0126
:1005F0006C010E94D7027B018C010E94D7026E1908
:100600007F09800B910B6A157B058C059D05A8F36E
:100610001F910F91FF90EF90DF90CF90BF90AF9020
:100620000895019751F0880F991F880F991F02971D
:100630002FB7F8940197F1F72FBF0895789410928F
:100640006A0310926B0310926C0310926D0384B5D1
:10065000826084BD84B5816084BD85B5826085BDBE
:1006600085B5816085BDEEE6F0E0808181608083A4
:10067000E1E8F0E080818260808380818160808316
:10068000E0E8F0E0808181608083E1EBF0E0808150
:1006900084608083E0EBF0E0808181608083ECE720
:1006A000F0E080818F778083808180648083EAE7B7
:1006B000F0E080818460808380818260808380819B
:1006C000816080838081806880831092C10008955A
:1006D000282F3327C90185579F4FFC019491295832
:1006E0003F4FF9018491882381F0E82FFF27E859D3
:1006F000FF4FE491FF27662329F480819095892399
:10070000808308958081892B80830895482F552701
:10071000CA0181569F4FFC012491CA0185579F4F02
:10072000FC01949149585F4FFA013491332319F435
:1007300080E090E00895222331F1233021F480916C
:1007400080008F7705C0243031F4809180008F7D48
:100750008093800018C0213019F484B58F7704C0CD
:10076000223021F484B58F7D84BD0DC0263021F464
:100770008091B0008F7705C0273029F48091B000B8
:100780008F7D8093B000E32FFF27EE58FF4FE49159
:10079000FF27808120E030E0892311F021E030E064
:1007A000C9010895482F5527CA0181569F4FFC0162
:1007B0002491CA0185579F4FFC01949149585F4F7E
:1007C000FA0134913323C1F1222331F1233021F492
:1007D000809180008F7705C0243031F480918000B3
:1007E0008F7D8093800018C0213019F484B58F77F5
:1007F00004C0223021F484B58F7D84BD0DC0263025
:1008000021F48091B0008F7705C0273029F48091C2
:10081000B0008F7D8093B000E32FFF27E359FF4F97
:10082000E491FF27662329F48081909589238083B2
:1008300008958081892B80830895AF92BF92CF92D3
:10084000DF92EF92FF920F931F93CF93DF93EC0110
:10085000E880F9800A811B81C801B7012DE133EFDF
:1008600041E050E00E94940427EA31E440E050E087
:100870000E94CA045B016C01C801B7012DE133EF8E
:1008800041E050E00E949404CA01B90124E13BE038
:1008900040E050E00E94CA04A61AB70AC80AD90A62
:1008A0001A141B041C041D0444F08FEF9FEFAFEFDC
:1008B000BFE7A80EB91ECA1EDB1EA882B982CA8273
:1008C000DB82C5019F77DF91CF911F910F91FF9040
:1008D000EF90DF90CF90BF90AF9008950E941D04DD
:1008E000089580E091E00E941D040895AA27BB2787
:1008F0008093000190930101A0930201B093030142
:10090000089597FB092E07260AD077FD04D02ED034
:1009100006D000201AF4709561957F4F0895F6F780
:10092000909581959F4F0895A1E21A2EAA1BBB1B9B
:10093000FD010DC0AA1FBB1FEE1FFF1FA217B307AB
:10094000E407F50720F0A21BB30BE40BF50B661FC1
:10095000771F881F991F1A9469F760957095809585
:1009600090959B01AC01BD01CF010895AA1BBB1B53
:1009700051E107C0AA1FBB1FA617B70710F0A61B9F
:10098000B70B881F991F5A95A9F780959095BC01C0
:10099000CD010895629FD001739FF001829FE00D09
:1009A000F11D649FE00DF11D929FF00D839FF00DEE
:1009B000749FF00D659FF00D9927729FB00DE11D9A
:1009C000F91F639FB00DE11DF91FBD01CF01112477
:0209D000089588
:0409D2000100000020
:00000001FF
